{
  "contractName": "NFTContract",
  "abi": [
    {
      "inputs": [
        {
          "internalType": "string",
          "name": "name_",
          "type": "string"
        },
        {
          "internalType": "string",
          "name": "symbol_",
          "type": "string"
        },
        {
          "internalType": "string[]",
          "name": "inputString",
          "type": "string[]"
        },
        {
          "internalType": "address[]",
          "name": "inputAddress",
          "type": "address[]"
        },
        {
          "internalType": "uint256[]",
          "name": "inputUint256",
          "type": "uint256[]"
        },
        {
          "internalType": "bool[]",
          "name": "inputBoolean",
          "type": "bool[]"
        }
      ],
      "stateMutability": "nonpayable",
      "type": "constructor"
    },
    {
      "anonymous": false,
      "inputs": [
        {
          "indexed": true,
          "internalType": "address",
          "name": "owner",
          "type": "address"
        },
        {
          "indexed": true,
          "internalType": "address",
          "name": "approved",
          "type": "address"
        },
        {
          "indexed": true,
          "internalType": "uint256",
          "name": "tokenId",
          "type": "uint256"
        }
      ],
      "name": "Approval",
      "type": "event"
    },
    {
      "anonymous": false,
      "inputs": [
        {
          "indexed": true,
          "internalType": "address",
          "name": "owner",
          "type": "address"
        },
        {
          "indexed": true,
          "internalType": "address",
          "name": "operator",
          "type": "address"
        },
        {
          "indexed": false,
          "internalType": "bool",
          "name": "approved",
          "type": "bool"
        }
      ],
      "name": "ApprovalForAll",
      "type": "event"
    },
    {
      "anonymous": false,
      "inputs": [
        {
          "indexed": true,
          "internalType": "uint256",
          "name": "id",
          "type": "uint256"
        }
      ],
      "name": "CreateAlphaOctopusNFT",
      "type": "event"
    },
    {
      "anonymous": false,
      "inputs": [
        {
          "indexed": true,
          "internalType": "address",
          "name": "previousOwner",
          "type": "address"
        },
        {
          "indexed": true,
          "internalType": "address",
          "name": "newOwner",
          "type": "address"
        }
      ],
      "name": "OwnershipTransferred",
      "type": "event"
    },
    {
      "anonymous": false,
      "inputs": [
        {
          "indexed": true,
          "internalType": "uint256",
          "name": "newPrice",
          "type": "uint256"
        }
      ],
      "name": "PresalePriceChanged",
      "type": "event"
    },
    {
      "anonymous": false,
      "inputs": [
        {
          "indexed": true,
          "internalType": "uint256",
          "name": "newTimestamp",
          "type": "uint256"
        }
      ],
      "name": "PresaleTimeChanged",
      "type": "event"
    },
    {
      "anonymous": false,
      "inputs": [
        {
          "indexed": true,
          "internalType": "uint256",
          "name": "newPrice",
          "type": "uint256"
        }
      ],
      "name": "SalePriceChanged",
      "type": "event"
    },
    {
      "anonymous": false,
      "inputs": [
        {
          "indexed": true,
          "internalType": "uint256",
          "name": "newTimestamp",
          "type": "uint256"
        }
      ],
      "name": "SaleTimeChanged",
      "type": "event"
    },
    {
      "anonymous": false,
      "inputs": [
        {
          "indexed": true,
          "internalType": "address",
          "name": "from",
          "type": "address"
        },
        {
          "indexed": true,
          "internalType": "address",
          "name": "to",
          "type": "address"
        },
        {
          "indexed": true,
          "internalType": "uint256",
          "name": "tokenId",
          "type": "uint256"
        }
      ],
      "name": "Transfer",
      "type": "event"
    },
    {
      "inputs": [],
      "name": "MAX_BY_MINT",
      "outputs": [
        {
          "internalType": "uint256",
          "name": "",
          "type": "uint256"
        }
      ],
      "stateMutability": "view",
      "type": "function"
    },
    {
      "inputs": [],
      "name": "MAX_BY_MINT_WHITELIST",
      "outputs": [
        {
          "internalType": "uint256",
          "name": "",
          "type": "uint256"
        }
      ],
      "stateMutability": "view",
      "type": "function"
    },
    {
      "inputs": [],
      "name": "MAX_ELEMENTS",
      "outputs": [
        {
          "internalType": "uint256",
          "name": "",
          "type": "uint256"
        }
      ],
      "stateMutability": "view",
      "type": "function"
    },
    {
      "inputs": [],
      "name": "MAX_MINT_TX",
      "outputs": [
        {
          "internalType": "uint256",
          "name": "",
          "type": "uint256"
        }
      ],
      "stateMutability": "view",
      "type": "function"
    },
    {
      "inputs": [],
      "name": "MAX_MINT_WHITELIST_TX",
      "outputs": [
        {
          "internalType": "uint256",
          "name": "",
          "type": "uint256"
        }
      ],
      "stateMutability": "view",
      "type": "function"
    },
    {
      "inputs": [],
      "name": "PRESALE_MINT_LIMIT",
      "outputs": [
        {
          "internalType": "uint256",
          "name": "",
          "type": "uint256"
        }
      ],
      "stateMutability": "view",
      "type": "function"
    },
    {
      "inputs": [],
      "name": "PRESALE_PRICE",
      "outputs": [
        {
          "internalType": "uint256",
          "name": "",
          "type": "uint256"
        }
      ],
      "stateMutability": "view",
      "type": "function"
    },
    {
      "inputs": [],
      "name": "PRESALE_START",
      "outputs": [
        {
          "internalType": "uint256",
          "name": "",
          "type": "uint256"
        }
      ],
      "stateMutability": "view",
      "type": "function"
    },
    {
      "inputs": [],
      "name": "PRICE",
      "outputs": [
        {
          "internalType": "uint256",
          "name": "",
          "type": "uint256"
        }
      ],
      "stateMutability": "view",
      "type": "function"
    },
    {
      "inputs": [],
      "name": "SALE_START",
      "outputs": [
        {
          "internalType": "uint256",
          "name": "",
          "type": "uint256"
        }
      ],
      "stateMutability": "view",
      "type": "function"
    },
    {
      "inputs": [
        {
          "internalType": "address[]",
          "name": "addresses",
          "type": "address[]"
        }
      ],
      "name": "addToWhiteList",
      "outputs": [],
      "stateMutability": "nonpayable",
      "type": "function"
    },
    {
      "inputs": [
        {
          "internalType": "address",
          "name": "addr",
          "type": "address"
        }
      ],
      "name": "addressInWhitelist",
      "outputs": [
        {
          "internalType": "bool",
          "name": "",
          "type": "bool"
        }
      ],
      "stateMutability": "view",
      "type": "function"
    },
    {
      "inputs": [
        {
          "internalType": "address[]",
          "name": "winners",
          "type": "address[]"
        }
      ],
      "name": "airdropNFT",
      "outputs": [],
      "stateMutability": "nonpayable",
      "type": "function"
    },
    {
      "inputs": [
        {
          "internalType": "address",
          "name": "to",
          "type": "address"
        },
        {
          "internalType": "uint256",
          "name": "tokenId",
          "type": "uint256"
        }
      ],
      "name": "approve",
      "outputs": [],
      "stateMutability": "nonpayable",
      "type": "function"
    },
    {
      "inputs": [
        {
          "internalType": "address",
          "name": "owner",
          "type": "address"
        }
      ],
      "name": "balanceOf",
      "outputs": [
        {
          "internalType": "uint256",
          "name": "",
          "type": "uint256"
        }
      ],
      "stateMutability": "view",
      "type": "function"
    },
    {
      "inputs": [],
      "name": "baseTokenURI",
      "outputs": [
        {
          "internalType": "string",
          "name": "",
          "type": "string"
        }
      ],
      "stateMutability": "view",
      "type": "function"
    },
    {
      "inputs": [
        {
          "internalType": "uint256",
          "name": "tokenId",
          "type": "uint256"
        }
      ],
      "name": "getApproved",
      "outputs": [
        {
          "internalType": "address",
          "name": "",
          "type": "address"
        }
      ],
      "stateMutability": "view",
      "type": "function"
    },
    {
      "inputs": [
        {
          "internalType": "address",
          "name": "owner",
          "type": "address"
        },
        {
          "internalType": "address",
          "name": "operator",
          "type": "address"
        }
      ],
      "name": "isApprovedForAll",
      "outputs": [
        {
          "internalType": "bool",
          "name": "",
          "type": "bool"
        }
      ],
      "stateMutability": "view",
      "type": "function"
    },
    {
      "inputs": [],
      "name": "isPaused",
      "outputs": [
        {
          "internalType": "bool",
          "name": "",
          "type": "bool"
        }
      ],
      "stateMutability": "view",
      "type": "function"
    },
    {
      "inputs": [],
      "name": "isPresaleOpen",
      "outputs": [
        {
          "internalType": "bool",
          "name": "",
          "type": "bool"
        }
      ],
      "stateMutability": "view",
      "type": "function"
    },
    {
      "inputs": [],
      "name": "isRevealed",
      "outputs": [
        {
          "internalType": "bool",
          "name": "",
          "type": "bool"
        }
      ],
      "stateMutability": "view",
      "type": "function"
    },
    {
      "inputs": [
        {
          "internalType": "uint256",
          "name": "_count",
          "type": "uint256"
        }
      ],
      "name": "mint",
      "outputs": [],
      "stateMutability": "payable",
      "type": "function"
    },
    {
      "inputs": [],
      "name": "name",
      "outputs": [
        {
          "internalType": "string",
          "name": "",
          "type": "string"
        }
      ],
      "stateMutability": "view",
      "type": "function"
    },
    {
      "inputs": [],
      "name": "owner",
      "outputs": [
        {
          "internalType": "address",
          "name": "",
          "type": "address"
        }
      ],
      "stateMutability": "view",
      "type": "function"
    },
    {
      "inputs": [
        {
          "internalType": "uint256",
          "name": "tokenId",
          "type": "uint256"
        }
      ],
      "name": "ownerOf",
      "outputs": [
        {
          "internalType": "address",
          "name": "",
          "type": "address"
        }
      ],
      "stateMutability": "view",
      "type": "function"
    },
    {
      "inputs": [],
      "name": "pauseMinting",
      "outputs": [],
      "stateMutability": "nonpayable",
      "type": "function"
    },
    {
      "inputs": [
        {
          "internalType": "uint256",
          "name": "_count",
          "type": "uint256"
        }
      ],
      "name": "presaleMint",
      "outputs": [],
      "stateMutability": "payable",
      "type": "function"
    },
    {
      "inputs": [
        {
          "internalType": "uint256",
          "name": "_count",
          "type": "uint256"
        }
      ],
      "name": "presalePrice",
      "outputs": [
        {
          "internalType": "uint256",
          "name": "",
          "type": "uint256"
        }
      ],
      "stateMutability": "view",
      "type": "function"
    },
    {
      "inputs": [
        {
          "internalType": "address[]",
          "name": "addresses",
          "type": "address[]"
        }
      ],
      "name": "removeFromWhiteList",
      "outputs": [],
      "stateMutability": "nonpayable",
      "type": "function"
    },
    {
      "inputs": [],
      "name": "renounceOwnership",
      "outputs": [],
      "stateMutability": "nonpayable",
      "type": "function"
    },
    {
      "inputs": [
        {
          "internalType": "uint256",
          "name": "count",
          "type": "uint256"
        }
      ],
      "name": "reserveTokens",
      "outputs": [],
      "stateMutability": "nonpayable",
      "type": "function"
    },
    {
      "inputs": [],
      "name": "resumeMinting",
      "outputs": [],
      "stateMutability": "nonpayable",
      "type": "function"
    },
    {
      "inputs": [],
      "name": "revealCollection",
      "outputs": [],
      "stateMutability": "nonpayable",
      "type": "function"
    },
    {
      "inputs": [
        {
          "internalType": "uint256",
          "name": "_tokenId",
          "type": "uint256"
        },
        {
          "internalType": "uint256",
          "name": "_salePrice",
          "type": "uint256"
        }
      ],
      "name": "royaltyInfo",
      "outputs": [
        {
          "internalType": "address",
          "name": "",
          "type": "address"
        },
        {
          "internalType": "uint256",
          "name": "",
          "type": "uint256"
        }
      ],
      "stateMutability": "view",
      "type": "function"
    },
    {
      "inputs": [
        {
          "internalType": "address",
          "name": "from",
          "type": "address"
        },
        {
          "internalType": "address",
          "name": "to",
          "type": "address"
        },
        {
          "internalType": "uint256",
          "name": "tokenId",
          "type": "uint256"
        }
      ],
      "name": "safeTransferFrom",
      "outputs": [],
      "stateMutability": "nonpayable",
      "type": "function"
    },
    {
      "inputs": [
        {
          "internalType": "address",
          "name": "from",
          "type": "address"
        },
        {
          "internalType": "address",
          "name": "to",
          "type": "address"
        },
        {
          "internalType": "uint256",
          "name": "tokenId",
          "type": "uint256"
        },
        {
          "internalType": "bytes",
          "name": "_data",
          "type": "bytes"
        }
      ],
      "name": "safeTransferFrom",
      "outputs": [],
      "stateMutability": "nonpayable",
      "type": "function"
    },
    {
      "inputs": [
        {
          "internalType": "uint256",
          "name": "_count",
          "type": "uint256"
        }
      ],
      "name": "salePrice",
      "outputs": [
        {
          "internalType": "uint256",
          "name": "",
          "type": "uint256"
        }
      ],
      "stateMutability": "view",
      "type": "function"
    },
    {
      "inputs": [
        {
          "internalType": "address",
          "name": "operator",
          "type": "address"
        },
        {
          "internalType": "bool",
          "name": "approved",
          "type": "bool"
        }
      ],
      "name": "setApprovalForAll",
      "outputs": [],
      "stateMutability": "nonpayable",
      "type": "function"
    },
    {
      "inputs": [
        {
          "internalType": "string",
          "name": "baseURI",
          "type": "string"
        }
      ],
      "name": "setBaseURI",
      "outputs": [],
      "stateMutability": "nonpayable",
      "type": "function"
    },
    {
      "inputs": [
        {
          "internalType": "uint256",
          "name": "_price",
          "type": "uint256"
        }
      ],
      "name": "setPresalePrice",
      "outputs": [],
      "stateMutability": "nonpayable",
      "type": "function"
    },
    {
      "inputs": [
        {
          "internalType": "uint256",
          "name": "_presaleTime",
          "type": "uint256"
        }
      ],
      "name": "setPresaleTime",
      "outputs": [],
      "stateMutability": "nonpayable",
      "type": "function"
    },
    {
      "inputs": [
        {
          "internalType": "address",
          "name": "_receiver",
          "type": "address"
        },
        {
          "internalType": "uint96",
          "name": "_royaltyFeesInBips",
          "type": "uint96"
        }
      ],
      "name": "setRoyaltyInfo",
      "outputs": [],
      "stateMutability": "nonpayable",
      "type": "function"
    },
    {
      "inputs": [
        {
          "internalType": "uint256",
          "name": "_price",
          "type": "uint256"
        }
      ],
      "name": "setSalePrice",
      "outputs": [],
      "stateMutability": "nonpayable",
      "type": "function"
    },
    {
      "inputs": [
        {
          "internalType": "uint256",
          "name": "_saleTime",
          "type": "uint256"
        }
      ],
      "name": "setSaleTime",
      "outputs": [],
      "stateMutability": "nonpayable",
      "type": "function"
    },
    {
      "inputs": [
        {
          "internalType": "bytes4",
          "name": "interfaceId",
          "type": "bytes4"
        }
      ],
      "name": "supportsInterface",
      "outputs": [
        {
          "internalType": "bool",
          "name": "",
          "type": "bool"
        }
      ],
      "stateMutability": "view",
      "type": "function"
    },
    {
      "inputs": [],
      "name": "symbol",
      "outputs": [
        {
          "internalType": "string",
          "name": "",
          "type": "string"
        }
      ],
      "stateMutability": "view",
      "type": "function"
    },
    {
      "inputs": [
        {
          "internalType": "uint256",
          "name": "index",
          "type": "uint256"
        }
      ],
      "name": "tokenByIndex",
      "outputs": [
        {
          "internalType": "uint256",
          "name": "",
          "type": "uint256"
        }
      ],
      "stateMutability": "view",
      "type": "function"
    },
    {
      "inputs": [
        {
          "internalType": "address",
          "name": "owner",
          "type": "address"
        },
        {
          "internalType": "uint256",
          "name": "index",
          "type": "uint256"
        }
      ],
      "name": "tokenOfOwnerByIndex",
      "outputs": [
        {
          "internalType": "uint256",
          "name": "",
          "type": "uint256"
        }
      ],
      "stateMutability": "view",
      "type": "function"
    },
    {
      "inputs": [
        {
          "internalType": "uint256",
          "name": "tokenId",
          "type": "uint256"
        }
      ],
      "name": "tokenURI",
      "outputs": [
        {
          "internalType": "string",
          "name": "",
          "type": "string"
        }
      ],
      "stateMutability": "view",
      "type": "function"
    },
    {
      "inputs": [],
      "name": "totalMint",
      "outputs": [
        {
          "internalType": "uint256",
          "name": "",
          "type": "uint256"
        }
      ],
      "stateMutability": "view",
      "type": "function"
    },
    {
      "inputs": [],
      "name": "totalSupply",
      "outputs": [
        {
          "internalType": "uint256",
          "name": "",
          "type": "uint256"
        }
      ],
      "stateMutability": "view",
      "type": "function"
    },
    {
      "inputs": [
        {
          "internalType": "address",
          "name": "from",
          "type": "address"
        },
        {
          "internalType": "address",
          "name": "to",
          "type": "address"
        },
        {
          "internalType": "uint256",
          "name": "tokenId",
          "type": "uint256"
        }
      ],
      "name": "transferFrom",
      "outputs": [],
      "stateMutability": "nonpayable",
      "type": "function"
    },
    {
      "inputs": [
        {
          "internalType": "address",
          "name": "newOwner",
          "type": "address"
        }
      ],
      "name": "transferOwnership",
      "outputs": [],
      "stateMutability": "nonpayable",
      "type": "function"
    },
    {
      "inputs": [
        {
          "internalType": "address",
          "name": "_owner",
          "type": "address"
        }
      ],
      "name": "walletOfOwner",
      "outputs": [
        {
          "internalType": "uint256[]",
          "name": "",
          "type": "uint256[]"
        }
      ],
      "stateMutability": "view",
      "type": "function"
    },
    {
      "inputs": [],
      "name": "withdrawAll",
      "outputs": [],
      "stateMutability": "nonpayable",
      "type": "function"
    }
  ],
  "bytecode": "0x6101406040526012805461ffff19169055600060178190556018553480156200002757600080fd5b50d380156200003557600080fd5b50d280156200004357600080fd5b5060405162004a2438038062004a248339810160408190526200006691620008fe565b8551869086906200007f90600090602085019062000510565b5080516200009590600190602084019062000510565b505050620000b2620000ac620003ac60201b60201c565b620003b0565b81600081518110620000c857620000c862000a9b565b60200260200101516080818152505081600181518110620000ed57620000ed62000a9b565b602002602001015160a081815250508160028151811062000112576200011262000a9b565b6020026020010151600e819055508160038151811062000136576200013662000a9b565b602002602001015160c08181525050816004815181106200015b576200015b62000a9b565b6020026020010151601081905550816006815181106200017f576200017f62000a9b565b602002602001015160e0818152505081600781518110620001a457620001a462000a9b565b6020026020010151600f8190555081600881518110620001c857620001c862000a9b565b6020026020010151610100818152505081600981518110620001ee57620001ee62000a9b565b6020908102919091018101516101205281516200021291601691908401906200059f565b5060166004815481106200022a576200022a62000a9b565b90600052602060002090602091828204019190069054906101000a900460ff166200025f576012805461ff0019166101001790555b620002ab8360028151811062000279576200027962000a9b565b60200260200101518360058151811062000297576200029762000a9b565b60200260200101516200040260201b60201c565b82600181518110620002c157620002c162000a9b565b6020026020010151601b60006101000a8154816001600160a01b0302191690836001600160a01b031602179055506200031d8360008151811062000309576200030962000a9b565b6020026020010151620003b060201b60201c565b8360008151811062000333576200033362000a9b565b6020026020010151601990805190602001906200035292919062000510565b508360018151811062000369576200036962000a9b565b6020026020010151601a90805190602001906200038892919062000510565b50620003a0600d6200050760201b620029711760201c565b50505050505062000ac7565b3390565b600c80546001600160a01b038381166001600160a01b0319831681179093556040519116919082907f8be0079c531659141344cd1fd0a4f28419497f9722a3daafe3b4186f6b6457e090600090a35050565b6127106001600160601b0382161115620004765760405162461bcd60e51b815260206004820152602a60248201527f455243323938313a20726f79616c7479206665652077696c6c206578636565646044820152692073616c65507269636560b01b60648201526084015b60405180910390fd5b6001600160a01b038216620004ce5760405162461bcd60e51b815260206004820152601960248201527f455243323938313a20696e76616c69642072656365697665720000000000000060448201526064016200046d565b604080518082019091526001600160a01b039092168083526001600160601b039091166020909201829052600160a01b90910217600a55565b80546001019055565b8280546200051e9062000a5e565b90600052602060002090601f0160209004810192826200054257600085556200058d565b82601f106200055d57805160ff19168380011785556200058d565b828001600101855582156200058d579182015b828111156200058d57825182559160200191906001019062000570565b506200059b92915062000641565b5090565b82805482825590600052602060002090601f016020900481019282156200058d5791602002820160005b838211156200060857835183826101000a81548160ff0219169083151502179055509260200192600101602081600001049283019260010302620005c9565b8015620006375782816101000a81549060ff021916905560010160208160000104928301926001030262000608565b50506200059b9291505b5b808211156200059b576000815560010162000642565b600082601f8301126200066a57600080fd5b81516020620006836200067d8362000a38565b62000a05565b80838252828201915082860187848660051b8901011115620006a457600080fd5b6000805b86811015620006e45782516001600160a81b0381168114620006c8578283fd5b6001600160a01b031685529385019391850191600101620006a8565b509198975050505050505050565b600082601f8301126200070457600080fd5b81516020620007176200067d8362000a38565b80838252828201915082860187848660051b89010111156200073857600080fd5b6000805b86811015620006e4578251801515811462000755578283fd5b855293850193918501916001016200073c565b600082601f8301126200077a57600080fd5b815160206200078d6200067d8362000a38565b80838252828201915082860187848660051b8901011115620007ae57600080fd5b6000805b86811015620006e45782516001600160401b03811115620007d1578283fd5b620007e18b88838d010162000869565b8652509385019391850191600101620007b2565b600082601f8301126200080757600080fd5b815160206200081a6200067d8362000a38565b80838252828201915082860187848660051b89010111156200083b57600080fd5b60005b858110156200085c578151845292840192908401906001016200083e565b5090979650505050505050565b600082601f8301126200087b57600080fd5b81516001600160401b0381111562000897576200089762000ab1565b6020620008ad601f8301601f1916820162000a05565b8281528582848701011115620008c257600080fd5b60005b83811015620008e2578581018301518282018401528201620008c5565b83811115620008f45760008385840101525b5095945050505050565b60008060008060008060c087890312156200091857600080fd5b86516001600160401b03808211156200093057600080fd5b6200093e8a838b0162000869565b975060208901519150808211156200095557600080fd5b620009638a838b0162000869565b965060408901519150808211156200097a57600080fd5b620009888a838b0162000768565b955060608901519150808211156200099f57600080fd5b620009ad8a838b0162000658565b94506080890151915080821115620009c457600080fd5b620009d28a838b01620007f5565b935060a0890151915080821115620009e957600080fd5b50620009f889828a01620006f2565b9150509295509295509295565b604051601f8201601f191681016001600160401b038111828210171562000a305762000a3062000ab1565b604052919050565b60006001600160401b0382111562000a545762000a5462000ab1565b5060051b60200190565b600181811c9082168062000a7357607f821691505b6020821081141562000a9557634e487b7160e01b600052602260045260246000fd5b50919050565b634e487b7160e01b600052603260045260246000fd5b634e487b7160e01b600052604160045260246000fd5b60805160a05160c05160e0516101005161012051613ece62000b56600039600081816109f70152818161246101526124ec01526000610581015260008181610fc40152818161258701526125f4015260008181610b8101528181611e220152611ef501526000610e120152600081816106cc0152818161186501528181611d410152611da60152613ece6000f3fe6080604052600436106103505760003560e01c80635dc0e835116101c6578063b187bd26116100f7578063d547cfb711610095578063eb4f847b1161006f578063eb4f847b14610ef5578063edf85f5114610f24578063f2fde38b14610f5e578063f5ebec8014610f9857600080fd5b8063d547cfb714610e34578063da8fbf2a14610e63578063e985e9c514610e9257600080fd5b8063c9b298f1116100d1578063c9b298f114610d69578063d031370b14610d7c578063d336468714610db6578063d441a97414610de657600080fd5b8063b187bd2614610cc1578063b88d4fde14610cf5578063c87b56dd14610d2f57600080fd5b80638ad5de281161016457806395d89b411161013e57806395d89b4114610c0b578063a0712d6814610c3a578063a22cb46514610c4d578063b11560c514610c8757600080fd5b80638ad5de2814610b555780638d859f3e14610ba35780638da5cb5b14610bd357600080fd5b806370a08231116101a057806370a0823114610a83578063715018a614610abd578063740d73f314610aec578063853828b614610b2657600080fd5b80635dc0e835146109cb57806362dc6e2114610a195780636352211e14610a4957600080fd5b80633502a716116102a057806348ce85841161023e57806355f804b31161021857806355f804b3146108f957806359a7715a1461093357806359ae340e146109625780635bc00f411461099157600080fd5b806348ce85841461084c5780634f6ccce71461088657806354214f69146108c057600080fd5b80633f5dc6e51161027a5780633f5dc6e51461076257806340d0b4a91461079c57806342842e0e146107cb578063438b63001461080557600080fd5b80633502a716146106a05780633549345e146106ee5780633bd2b67d1461072857600080fd5b80631875d21a1161030d57806322673030116102e757806322673030146105a357806323b872dd146105d35780632a55205a1461060d5780632f745c591461066657600080fd5b80631875d21a146104e15780631919fed71461051b5780631a09d9651461055557600080fd5b806301ffc9a71461035557806302fa7c47146103a457806306fdde03146103e0578063081812fc1461041c578063095ea7b31461046e57806318160ddd146104a8575b600080fd5b34801561036157600080fd5b50d3801561036e57600080fd5b50d2801561037b57600080fd5b5061038f61038a3660046139bc565b610fe6565b60405190151581526020015b60405180910390f35b3480156103b057600080fd5b50d380156103bd57600080fd5b50d280156103ca57600080fd5b506103de6103d936600461385b565b610ff7565b005b3480156103ec57600080fd5b50d380156103f957600080fd5b50d2801561040657600080fd5b5061040f611038565b60405161039b9190613c06565b34801561042857600080fd5b50d3801561043557600080fd5b50d2801561044257600080fd5b50610456610451366004613a3f565b6110ca565b6040516001600160a01b03909116815260200161039b565b34801561047a57600080fd5b50d3801561048757600080fd5b50d2801561049457600080fd5b506103de6104a3366004613831565b61115f565b3480156104b457600080fd5b50d380156104c157600080fd5b50d280156104ce57600080fd5b506008545b60405190815260200161039b565b3480156104ed57600080fd5b50d380156104fa57600080fd5b50d2801561050757600080fd5b506104d3610516366004613a3f565b611275565b34801561052757600080fd5b50d3801561053457600080fd5b50d2801561054157600080fd5b506103de610550366004613a3f565b611297565b34801561056157600080fd5b50d3801561056e57600080fd5b50d2801561057b57600080fd5b506104d37f000000000000000000000000000000000000000000000000000000000000000081565b3480156105af57600080fd5b50d380156105bc57600080fd5b50d280156105c957600080fd5b506104d360105481565b3480156105df57600080fd5b50d380156105ec57600080fd5b50d280156105f957600080fd5b506103de61060836600461373d565b611300565b34801561061957600080fd5b50d3801561062657600080fd5b50d2801561063357600080fd5b50610647610642366004613a58565b611331565b604080516001600160a01b03909316835260208301919091520161039b565b34801561067257600080fd5b50d3801561067f57600080fd5b50d2801561068c57600080fd5b506104d361069b366004613831565b6113dd565b3480156106ac57600080fd5b50d380156106b957600080fd5b50d280156106c657600080fd5b506104d37f000000000000000000000000000000000000000000000000000000000000000081565b3480156106fa57600080fd5b50d3801561070757600080fd5b50d2801561071457600080fd5b506103de610723366004613a3f565b611473565b34801561073457600080fd5b50d3801561074157600080fd5b50d2801561074e57600080fd5b506103de61075d366004613a3f565b6114e8565b34801561076e57600080fd5b50d3801561077b57600080fd5b50d2801561078857600080fd5b5061038f6107973660046136ef565b611551565b3480156107a857600080fd5b50d380156107b557600080fd5b50d280156107c257600080fd5b506103de61157d565b3480156107d757600080fd5b50d380156107e457600080fd5b50d280156107f157600080fd5b506103de61080036600461373d565b6115c4565b34801561081157600080fd5b50d3801561081e57600080fd5b50d2801561082b57600080fd5b5061083f61083a3660046136ef565b6115df565b60405161039b9190613bc2565b34801561085857600080fd5b50d3801561086557600080fd5b50d2801561087257600080fd5b506103de610881366004613a3f565b611681565b34801561089257600080fd5b50d3801561089f57600080fd5b50d280156108ac57600080fd5b506104d36108bb366004613a3f565b6116f6565b3480156108cc57600080fd5b50d380156108d957600080fd5b50d280156108e657600080fd5b5060125461038f90610100900460ff1681565b34801561090557600080fd5b50d3801561091257600080fd5b50d2801561091f57600080fd5b506103de61092e3660046139f6565b611789565b34801561093f57600080fd5b50d3801561094c57600080fd5b50d2801561095957600080fd5b506104d36117d1565b34801561096e57600080fd5b50d3801561097b57600080fd5b50d2801561098857600080fd5b506103de6117e0565b34801561099d57600080fd5b50d380156109aa57600080fd5b50d280156109b757600080fd5b506103de6109c6366004613908565b611816565b3480156109d757600080fd5b50d380156109e457600080fd5b50d280156109f157600080fd5b506104d37f000000000000000000000000000000000000000000000000000000000000000081565b348015610a2557600080fd5b50d38015610a3257600080fd5b50d28015610a3f57600080fd5b506104d3600f5481565b348015610a5557600080fd5b50d38015610a6257600080fd5b50d28015610a6f57600080fd5b50610456610a7e366004613a3f565b61197d565b348015610a8f57600080fd5b50d38015610a9c57600080fd5b50d28015610aa957600080fd5b506104d3610ab83660046136ef565b6119f4565b348015610ac957600080fd5b50d38015610ad657600080fd5b50d28015610ae357600080fd5b506103de611a7b565b348015610af857600080fd5b50d38015610b0557600080fd5b50d28015610b1257600080fd5b506103de610b21366004613893565b611ab1565b348015610b3257600080fd5b50d38015610b3f57600080fd5b50d28015610b4c57600080fd5b506103de611c75565b348015610b6157600080fd5b50d38015610b6e57600080fd5b50d28015610b7b57600080fd5b506104d37f000000000000000000000000000000000000000000000000000000000000000081565b348015610baf57600080fd5b50d38015610bbc57600080fd5b50d28015610bc957600080fd5b506104d3600e5481565b348015610bdf57600080fd5b50d38015610bec57600080fd5b50d28015610bf957600080fd5b50600c546001600160a01b0316610456565b348015610c1757600080fd5b50d38015610c2457600080fd5b50d28015610c3157600080fd5b5061040f611cc8565b6103de610c48366004613a3f565b611cd7565b348015610c5957600080fd5b50d38015610c6657600080fd5b50d28015610c7357600080fd5b506103de610c823660046137f5565b612021565b348015610c9357600080fd5b50d38015610ca057600080fd5b50d28015610cad57600080fd5b506103de610cbc366004613893565b6120e6565b348015610ccd57600080fd5b50d38015610cda57600080fd5b50d28015610ce757600080fd5b5060125461038f9060ff1681565b348015610d0157600080fd5b50d38015610d0e57600080fd5b50d28015610d1b57600080fd5b506103de610d2a366004613779565b612202565b348015610d3b57600080fd5b50d38015610d4857600080fd5b50d28015610d5557600080fd5b5061040f610d64366004613a3f565b612234565b6103de610d77366004613a3f565b612354565b348015610d8857600080fd5b50d38015610d9557600080fd5b50d28015610da257600080fd5b506103de610db1366004613a3f565b61276d565b348015610dc257600080fd5b50d38015610dcf57600080fd5b50d28015610ddc57600080fd5b506104d360115481565b348015610df257600080fd5b50d38015610dff57600080fd5b50d28015610e0c57600080fd5b506104d37f000000000000000000000000000000000000000000000000000000000000000081565b348015610e4057600080fd5b50d38015610e4d57600080fd5b50d28015610e5a57600080fd5b5061040f6127dd565b348015610e6f57600080fd5b50d38015610e7c57600080fd5b50d28015610e8957600080fd5b506103de61286b565b348015610e9e57600080fd5b50d38015610eab57600080fd5b50d28015610eb857600080fd5b5061038f610ec736600461370a565b6001600160a01b03918216600090815260056020908152604080832093909416825291909152205460ff1690565b348015610f0157600080fd5b50d38015610f0e57600080fd5b50d28015610f1b57600080fd5b5061038f6128a4565b348015610f3057600080fd5b50d38015610f3d57600080fd5b50d28015610f4a57600080fd5b506104d3610f59366004613a3f565b6128c9565b348015610f6a57600080fd5b50d38015610f7757600080fd5b50d28015610f8457600080fd5b506103de610f933660046136ef565b6128d9565b348015610fa457600080fd5b50d38015610fb157600080fd5b50d28015610fbe57600080fd5b506104d37f000000000000000000000000000000000000000000000000000000000000000081565b6000610ff18261297a565b92915050565b600c546001600160a01b0316331461102a5760405162461bcd60e51b815260040161102190613c6b565b60405180910390fd5b611034828261299f565b5050565b60606000805461104790613db0565b80601f016020809104026020016040519081016040528092919081815260200182805461107390613db0565b80156110c05780601f10611095576101008083540402835291602001916110c0565b820191906000526020600020905b8154815290600101906020018083116110a357829003601f168201915b5050505050905090565b6000818152600260205260408120546001600160a01b03166111435760405162461bcd60e51b815260206004820152602c60248201527f4552433732313a20617070726f76656420717565727920666f72206e6f6e657860448201526b34b9ba32b73a103a37b5b2b760a11b6064820152608401611021565b506000908152600460205260409020546001600160a01b031690565b600061116a8261197d565b9050806001600160a01b0316836001600160a01b031614156111d85760405162461bcd60e51b815260206004820152602160248201527f4552433732313a20617070726f76616c20746f2063757272656e74206f776e656044820152603960f91b6064820152608401611021565b336001600160a01b03821614806111f457506111f48133610ec7565b6112665760405162461bcd60e51b815260206004820152603860248201527f4552433732313a20617070726f76652063616c6c6572206973206e6f74206f7760448201527f6e6572206e6f7220617070726f76656420666f7220616c6c00000000000000006064820152608401611021565b6112708383612a9c565b505050565b60008061128181612b0a565b600f5461128e9084612b8a565b91505b50919050565b600c546001600160a01b031633146112c15760405162461bcd60e51b815260040161102190613c6b565b60026112cc81612b0a565b600e82905560405182907f421d50d68688bdeb8868bd642bc70a6ead1cfb014d1f6d1780538fd56420655c90600090a25050565b61130a3382612b9d565b6113265760405162461bcd60e51b815260040161102190613ca0565b611270838383612c94565b6000828152600b602090815260408083208151808301909252546001600160a01b038116808352600160a01b9091046001600160601b03169282019290925282916113a6575060408051808201909152600a546001600160a01b0381168252600160a01b90046001600160601b031660208201525b6020810151600090612710906113c5906001600160601b031687613d4e565b6113cf9190613d3a565b915196919550909350505050565b60006113e8836119f4565b821061144a5760405162461bcd60e51b815260206004820152602b60248201527f455243373231456e756d657261626c653a206f776e657220696e646578206f7560448201526a74206f6620626f756e647360a81b6064820152608401611021565b506001600160a01b03919091166000908152600660209081526040808320938352929052205490565b600c546001600160a01b0316331461149d5760405162461bcd60e51b815260040161102190613c6b565b60006114a881612b0a565b60026114b381612b0a565b600f83905560405183907f968f5f94b331765ebe8faa528344f798563c6fa571be7a076640ff4fa0a0341690600090a2505050565b600c546001600160a01b031633146115125760405162461bcd60e51b815260040161102190613c6b565b600361151d81612b0a565b601082905560405182907fb5d21b735d97350d5164fa17d5f1c9d68d877c1adc848ae345a3ea4d9c00ceb390600090a25050565b60008061155d81612b0a565b50506001600160a01b031660009081526013602052604090205460ff1690565b600c546001600160a01b031633146115a75760405162461bcd60e51b815260040161102190613c6b565b60046115b281612b0a565b506012805461ff001916610100179055565b61127083838360405180602001604052806000815250612202565b606060006115ec836119f4565b905060008167ffffffffffffffff81111561160957611609613e6c565b604051908082528060200260200182016040528015611632578160200160208202803683370190505b50905060005b828110156116795761164a85826113dd565b82828151811061165c5761165c613e56565b60209081029190910101528061167181613de5565b915050611638565b509392505050565b600c546001600160a01b031633146116ab5760405162461bcd60e51b815260040161102190613c6b565b60006116b681612b0a565b60036116c181612b0a565b601183905560405183907faa7d64f31a7825528c59603a3f3c0ec2fd4f5039c574e16f9cf5acc2885f247490600090a2505050565b600061170160085490565b82106117645760405162461bcd60e51b815260206004820152602c60248201527f455243373231456e756d657261626c653a20676c6f62616c20696e646578206f60448201526b7574206f6620626f756e647360a01b6064820152608401611021565b6008828154811061177757611777613e56565b90600052602060002001549050919050565b600c546001600160a01b031633146117b35760405162461bcd60e51b815260040161102190613c6b565b60066117be81612b0a565b815161127090601a9060208501906135d6565b60006117db612e3f565b905090565b600c546001600160a01b0316331461180a5760405162461bcd60e51b815260040161102190613c6b565b6012805460ff19169055565b600c546001600160a01b031633146118405760405162461bcd60e51b815260040161102190613c6b565b600161184b81612b0a565b6000611861600161185b600d5490565b90612e4a565b90507f00000000000000000000000000000000000000000000000000000000000000008351826118919190613d22565b11156118cb5760405162461bcd60e51b815260206004820152600960248201526813585e081b1a5b5a5d60ba1b6044820152606401611021565b60008351116119375760405162461bcd60e51b815260206004820152603260248201527f506c656173652070726f7669646520746865206c697374206f662077616c6c656044820152710747320666f72207468652061697264726f760741b6064820152608401611021565b60005b83518110156119775761196584828151811061195857611958613e56565b6020026020010151612e56565b8061196f81613de5565b91505061193a565b50505050565b6000818152600260205260408120546001600160a01b031680610ff15760405162461bcd60e51b815260206004820152602960248201527f4552433732313a206f776e657220717565727920666f72206e6f6e657869737460448201526832b73a103a37b5b2b760b91b6064820152608401611021565b60006001600160a01b038216611a5f5760405162461bcd60e51b815260206004820152602a60248201527f4552433732313a2062616c616e636520717565727920666f7220746865207a65604482015269726f206164647265737360b01b6064820152608401611021565b506001600160a01b031660009081526003602052604090205490565b600c546001600160a01b03163314611aa55760405162461bcd60e51b815260040161102190613c6b565b611aaf6000612ea9565b565b600c546001600160a01b03163314611adb5760405162461bcd60e51b815260040161102190613c6b565b6000611ae681612b0a565b60005b82811015611977576000848483818110611b0557611b05613e56565b9050602002016020810190611b1a91906136ef565b6001600160a01b03161415611b665760405162461bcd60e51b8152602060048201526012602482015271139d5b1b081859191c995cdcc8199bdd5b9960721b6044820152606401611021565b600160136000868685818110611b7e57611b7e613e56565b9050602002016020810190611b9391906136ef565b6001600160a01b0316815260208101919091526040016000908120805460ff191692151592909217909155601481868685818110611bd357611bd3613e56565b9050602002016020810190611be891906136ef565b6001600160a01b03166001600160a01b031681526020019081526020016000205411611c15576000611c62565b60146000858584818110611c2b57611c2b613e56565b9050602002016020810190611c4091906136ef565b6001600160a01b03166001600160a01b03168152602001908152602001600020545b5080611c6d81613de5565b915050611ae9565b600c546001600160a01b03163314611c9f5760405162461bcd60e51b815260040161102190613c6b565b4780611caa57600080fd5b611cc5611cbf600c546001600160a01b031690565b82612efb565b50565b60606001805461104790613db0565b600c546001600160a01b03163314611d2d574260105410611d2d5760405162461bcd60e51b815260206004820152601060248201526f29b0b6329034b9903737ba1037b832b760811b6044820152606401611021565b6000611d3d600161185b600d5490565b90507f0000000000000000000000000000000000000000000000000000000000000000611d6a8383613d22565b1115611da45760405162461bcd60e51b815260206004820152600960248201526813585e081b1a5b5a5d60ba1b6044820152606401611021565b7f0000000000000000000000000000000000000000000000000000000000000000811115611e205760405162461bcd60e51b8152602060048201526024808201527f416c6c20416c706861204f63746f707573204e465427732061726520736f6c64604482015263081bdd5d60e21b6064820152608401611021565b7f0000000000000000000000000000000000000000000000000000000000000000821115611e9e5760405162461bcd60e51b815260206004820152602560248201527f4578636565647320616c6c6f776564204e4654277320706572207472616e736160448201526431ba34b7b760d91b6064820152608401611021565b60125460ff1615611ee35760405162461bcd60e51b815260206004820152600f60248201526e29b0b6329034b9902830bab9b2b21760891b6044820152606401611021565b336000908152601560205260409020547f000000000000000000000000000000000000000000000000000000000000000090611f20908490613d22565b1115611f6e5760405162461bcd60e51b815260206004820152601b60248201527f4578636565647320796f7572206d696e74696e672071756f74612e00000000006044820152606401611021565b611f77826128c9565b341015611fba5760405162461bcd60e51b815260206004820152601160248201527056616c75652062656c6f7720707269636560781b6044820152606401611021565b3360009081526015602052604081208054849290611fd9908490613d22565b90915550600090505b8281101561200557611ff333612e56565b80611ffd81613de5565b915050611fe2565b5061103461201b600c546001600160a01b031690565b47612efb565b6001600160a01b03821633141561207a5760405162461bcd60e51b815260206004820152601960248201527f4552433732313a20617070726f766520746f2063616c6c6572000000000000006044820152606401611021565b3360008181526005602090815260408083206001600160a01b03871680855290835292819020805460ff191686151590811790915590519081529192917f17307eab39ab6107e8899845ad3d59bd9653f200f220920489ca2b5937696c31910160405180910390a35050565b600c546001600160a01b031633146121105760405162461bcd60e51b815260040161102190613c6b565b600061211b81612b0a565b60005b8281101561197757600084848381811061213a5761213a613e56565b905060200201602081019061214f91906136ef565b6001600160a01b0316141561219b5760405162461bcd60e51b8152602060048201526012602482015271139d5b1b081859191c995cdcc8199bdd5b9960721b6044820152606401611021565b6000601360008686858181106121b3576121b3613e56565b90506020020160208101906121c891906136ef565b6001600160a01b031681526020810191909152604001600020805460ff1916911515919091179055806121fa81613de5565b91505061211e565b61220c3383612b9d565b6122285760405162461bcd60e51b815260040161102190613ca0565b61197784848484612f31565b6000818152600260205260409020546060906001600160a01b03166122b35760405162461bcd60e51b815260206004820152602f60248201527f4552433732314d657461646174613a2055524920717565727920666f72206e6f60448201526e3732bc34b9ba32b73a103a37b5b2b760891b6064820152608401611021565b604080518082019091526005815264173539b7b760d91b6020820152829060006122db612f64565b601254909150610100900460ff161561234257600081511161230c5760405180602001604052806000815250612339565b8061231684612f73565b8360405160200161232993929190613aa6565b6040516020818303038152906040525b95945050505050565b60196040516020016123299190613ae9565b600c546001600160a01b031633146123f55742601154106123ae5760405162461bcd60e51b81526020600482015260146024820152732839329029b0b6329034b9903737ba1037b832b760611b6044820152606401611021565b42601054116123f55760405162461bcd60e51b81526020600482015260136024820152722839329029b0b6329034b99031b637b9b2b21760691b6044820152606401611021565b600061240081612b0a565b3360009081526013602052604090205460ff1661245f5760405162461bcd60e51b815260206004820152601860248201527f596f7520617265206e6f7420696e2077686974656c69737400000000000000006044820152606401611021565b7f00000000000000000000000000000000000000000000000000000000000000008211156124da5760405162461bcd60e51b815260206004820152602260248201527f4d6f7265207468656e20616c6c6f77656420706572207472616e73616374696f604482015261371760f11b6064820152608401611021565b336000908152601460205260409020547f000000000000000000000000000000000000000000000000000000000000000090612517908490613d22565b11156125735760405162461bcd60e51b815260206004820152602560248201527f4578636565647320796f75722077686974656c697374206d696e74696e6720716044820152643ab7ba309760d91b6064820152608401611021565b6000612583600161185b600d5490565b90507f00000000000000000000000000000000000000000000000000000000000000006125b08483613d22565b11156125f25760405162461bcd60e51b815260206004820152601160248201527013585e081c1c995cd85b19481b1a5b5a5d607a1b6044820152606401611021565b7f00000000000000000000000000000000000000000000000000000000000000008111156126625760405162461bcd60e51b815260206004820152601e60248201527f416c6c2070726573616c65204e465427732061726520736f6c64206f757400006044820152606401611021565b61266b83611275565b3410156126ae5760405162461bcd60e51b815260206004820152601160248201527056616c75652062656c6f7720707269636560781b6044820152606401611021565b60125460ff16156126f35760405162461bcd60e51b815260206004820152600f60248201526e29b0b6329034b9902830bab9b2b21760891b6044820152606401611021565b3360009081526014602052604081208054859290612712908490613d22565b92505081905550826018600082825461272b9190613d22565b90915550600090505b838110156127575761274533612e56565b8061274f81613de5565b915050612734565b5061127061201b600c546001600160a01b031690565b600c546001600160a01b031633146127975760405162461bcd60e51b815260040161102190613c6b565b60056127a281612b0a565b60005b8281101561127057601780549060006127bd83613de5565b91905055506127cb33612e56565b806127d581613de5565b9150506127a5565b601a80546127ea90613db0565b80601f016020809104026020016040519081016040528092919081815260200182805461281690613db0565b80156128635780601f1061283857610100808354040283529160200191612863565b820191906000526020600020905b81548152906001019060200180831161284657829003601f168201915b505050505081565b600c546001600160a01b031633146128955760405162461bcd60e51b815260040161102190613c6b565b6012805460ff19166001179055565b6000426011541080156128b8575042601054115b156128c35750600190565b50600090565b600e54600090610ff19083612b8a565b600c546001600160a01b031633146129035760405162461bcd60e51b815260040161102190613c6b565b6001600160a01b0381166129685760405162461bcd60e51b815260206004820152602660248201527f4f776e61626c653a206e6577206f776e657220697320746865207a65726f206160448201526564647265737360d01b6064820152608401611021565b611cc581612ea9565b80546001019055565b60006001600160e01b0319821663152a902d60e11b1480610ff15750610ff182613071565b6127106001600160601b0382161115612a0d5760405162461bcd60e51b815260206004820152602a60248201527f455243323938313a20726f79616c7479206665652077696c6c206578636565646044820152692073616c65507269636560b01b6064820152608401611021565b6001600160a01b038216612a635760405162461bcd60e51b815260206004820152601960248201527f455243323938313a20696e76616c6964207265636569766572000000000000006044820152606401611021565b604080518082019091526001600160a01b039092168083526001600160601b039091166020909201829052600160a01b90910217600a55565b600081815260046020526040902080546001600160a01b0319166001600160a01b0384169081179091558190612ad18261197d565b6001600160a01b03167f8c5be1e5ebec7d5bd14f71427d1e84f3dd0314c0f7b2291e5b200ac8c7c3b92560405160405180910390a45050565b60168181548110612b1d57612b1d613e56565b90600052602060002090602091828204019190069054906101000a900460ff16611cc557604051732332b0ba3ab932902737ba1022b730b13632b21760611b602082015260340160408051601f198184030181529082905262461bcd60e51b825261102191600401613c06565b6000612b968284613d4e565b9392505050565b6000818152600260205260408120546001600160a01b0316612c165760405162461bcd60e51b815260206004820152602c60248201527f4552433732313a206f70657261746f7220717565727920666f72206e6f6e657860448201526b34b9ba32b73a103a37b5b2b760a11b6064820152608401611021565b6000612c218361197d565b9050806001600160a01b0316846001600160a01b03161480612c5c5750836001600160a01b0316612c51846110ca565b6001600160a01b0316145b80612c8c57506001600160a01b0380821660009081526005602090815260408083209388168352929052205460ff165b949350505050565b826001600160a01b0316612ca78261197d565b6001600160a01b031614612d0f5760405162461bcd60e51b815260206004820152602960248201527f4552433732313a207472616e73666572206f6620746f6b656e2074686174206960448201526839903737ba1037bbb760b91b6064820152608401611021565b6001600160a01b038216612d715760405162461bcd60e51b8152602060048201526024808201527f4552433732313a207472616e7366657220746f20746865207a65726f206164646044820152637265737360e01b6064820152608401611021565b612d7c838383613096565b612d87600082612a9c565b6001600160a01b0383166000908152600360205260408120805460019290612db0908490613d6d565b90915550506001600160a01b0382166000908152600360205260408120805460019290612dde908490613d22565b909155505060008181526002602052604080822080546001600160a01b0319166001600160a01b0386811691821790925591518493918716917fddf252ad1be2c89b69c2b068fc378daa952ba7f163c4a11628f55a4df523b3ef91a4505050565b60006117db600d5490565b6000612b968284613d6d565b6000612e60612e3f565b9050612e70600d80546001019055565b612e7a828261314e565b60405181907f928c1f062bafbf3ad16c2891248d751ea6a7aea539f67650139b8f8860ad86b390600090a25050565b600c80546001600160a01b038381166001600160a01b0319831681179093556040519116919082907f8be0079c531659141344cd1fd0a4f28419497f9722a3daafe3b4186f6b6457e090600090a35050565b6040516001600160a01b0383169082156108fc029083906000818181858888f19350505050158015611270573d6000803e3d6000fd5b612f3c848484612c94565b612f4884848484613168565b6119775760405162461bcd60e51b815260040161102190613c19565b6060601a805461104790613db0565b606081612f975750506040805180820190915260018152600360fc1b602082015290565b8160005b8115612fc15780612fab81613de5565b9150612fba9050600a83613d3a565b9150612f9b565b60008167ffffffffffffffff811115612fdc57612fdc613e6c565b6040519080825280601f01601f191660200182016040528015613006576020820181803683370190505b5090505b8415612c8c5761301b600183613d6d565b9150613028600a86613e00565b613033906030613d22565b60f81b81838151811061304857613048613e56565b60200101906001600160f81b031916908160001a90535061306a600a86613d3a565b945061300a565b60006001600160e01b0319821663780e9d6360e01b1480610ff15750610ff182613275565b6001600160a01b0383166130f1576130ec81600880546000838152600960205260408120829055600182018355919091527ff3f7a9fe364faab93b216da50a3214154f22a0a2b415b23a84c8169e8b636ee30155565b613114565b816001600160a01b0316836001600160a01b0316146131145761311483826132c5565b6001600160a01b03821661312b5761127081613362565b826001600160a01b0316826001600160a01b031614611270576112708282613411565b611034828260405180602001604052806000815250613455565b60006001600160a01b0384163b1561326a57604051630a85bd0160e11b81526001600160a01b0385169063150b7a02906131ac903390899088908890600401613b85565b602060405180830381600087803b1580156131c657600080fd5b505af19250505080156131f6575060408051601f3d908101601f191682019092526131f3918101906139d9565b60015b613250573d808015613224576040519150601f19603f3d011682016040523d82523d6000602084013e613229565b606091505b5080516132485760405162461bcd60e51b815260040161102190613c19565b805181602001fd5b6001600160e01b031916630a85bd0160e11b149050612c8c565b506001949350505050565b60006001600160e01b031982166380ac58cd60e01b14806132a657506001600160e01b03198216635b5e139f60e01b145b80610ff157506301ffc9a760e01b6001600160e01b0319831614610ff1565b600060016132d2846119f4565b6132dc9190613d6d565b60008381526007602052604090205490915080821461332f576001600160a01b03841660009081526006602090815260408083208584528252808320548484528184208190558352600790915290208190555b5060009182526007602090815260408084208490556001600160a01b039094168352600681528383209183525290812055565b60085460009061337490600190613d6d565b6000838152600960205260408120546008805493945090928490811061339c5761339c613e56565b9060005260206000200154905080600883815481106133bd576133bd613e56565b60009182526020808320909101929092558281526009909152604080822084905585825281205560088054806133f5576133f5613e40565b6001900381819060005260206000200160009055905550505050565b600061341c836119f4565b6001600160a01b039093166000908152600660209081526040808320868452825280832085905593825260079052919091209190915550565b61345f8383613488565b61346c6000848484613168565b6112705760405162461bcd60e51b815260040161102190613c19565b6001600160a01b0382166134de5760405162461bcd60e51b815260206004820181905260248201527f4552433732313a206d696e7420746f20746865207a65726f20616464726573736044820152606401611021565b6000818152600260205260409020546001600160a01b0316156135435760405162461bcd60e51b815260206004820152601c60248201527f4552433732313a20746f6b656e20616c7265616479206d696e746564000000006044820152606401611021565b61354f60008383613096565b6001600160a01b0382166000908152600360205260408120805460019290613578908490613d22565b909155505060008181526002602052604080822080546001600160a01b0319166001600160a01b03861690811790915590518392907fddf252ad1be2c89b69c2b068fc378daa952ba7f163c4a11628f55a4df523b3ef908290a45050565b8280546135e290613db0565b90600052602060002090601f016020900481019282613604576000855561364a565b82601f1061361d57805160ff191683800117855561364a565b8280016001018555821561364a579182015b8281111561364a57825182559160200191906001019061362f565b5061365692915061365a565b5090565b5b80821115613656576000815560010161365b565b600067ffffffffffffffff83111561368957613689613e6c565b61369c601f8401601f1916602001613cf1565b90508281528383830111156136b057600080fd5b828260208301376000602084830101529392505050565b600081356001600160a81b03811681146136e057600080fd5b6001600160a01b031692915050565b60006020828403121561370157600080fd5b612b96826136c7565b6000806040838503121561371d57600080fd5b613726836136c7565b9150613734602084016136c7565b90509250929050565b60008060006060848603121561375257600080fd5b61375b846136c7565b9250613769602085016136c7565b9150604084013590509250925092565b6000806000806080858703121561378f57600080fd5b613798856136c7565b93506137a6602086016136c7565b925060408501359150606085013567ffffffffffffffff8111156137c957600080fd5b8501601f810187136137da57600080fd5b6137e98782356020840161366f565b91505092959194509250565b6000806040838503121561380857600080fd5b613811836136c7565b91506020830135801515811461382657600080fd5b809150509250929050565b6000806040838503121561384457600080fd5b61384d836136c7565b946020939093013593505050565b6000806040838503121561386e57600080fd5b613877836136c7565b915060208301356001600160601b038116811461382657600080fd5b600080602083850312156138a657600080fd5b823567ffffffffffffffff808211156138be57600080fd5b818501915085601f8301126138d257600080fd5b8135818111156138e157600080fd5b8660208260051b85010111156138f657600080fd5b60209290920196919550909350505050565b6000602080838503121561391b57600080fd5b823567ffffffffffffffff8082111561393357600080fd5b818501915085601f83011261394757600080fd5b81358181111561395957613959613e6c565b8060051b915061396a848301613cf1565b8181528481019084860184860187018a101561398557600080fd5b600095505b838610156139af5761399b816136c7565b83526001959095019491860191860161398a565b5098975050505050505050565b6000602082840312156139ce57600080fd5b8135612b9681613e82565b6000602082840312156139eb57600080fd5b8151612b9681613e82565b600060208284031215613a0857600080fd5b813567ffffffffffffffff811115613a1f57600080fd5b8201601f81018413613a3057600080fd5b612c8c8482356020840161366f565b600060208284031215613a5157600080fd5b5035919050565b60008060408385031215613a6b57600080fd5b50508035926020909101359150565b60008151808452613a92816020860160208601613d84565b601f01601f19169290920160200192915050565b60008451613ab8818460208901613d84565b845190830190613acc818360208901613d84565b8451910190613adf818360208801613d84565b0195945050505050565b600080835481600182811c915080831680613b0557607f831692505b6020808410821415613b2557634e487b7160e01b86526022600452602486fd5b818015613b395760018114613b4a57613b77565b60ff19861689528489019650613b77565b60008a81526020902060005b86811015613b6f5781548b820152908501908301613b56565b505084890196505b509498975050505050505050565b6001600160a01b0385811682528416602082015260408101839052608060608201819052600090613bb890830184613a7a565b9695505050505050565b6020808252825182820181905260009190848201906040850190845b81811015613bfa57835183529284019291840191600101613bde565b50909695505050505050565b602081526000612b966020830184613a7a565b60208082526032908201527f4552433732313a207472616e7366657220746f206e6f6e20455243373231526560408201527131b2b4bb32b91034b6b83632b6b2b73a32b960711b606082015260800190565b6020808252818101527f4f776e61626c653a2063616c6c6572206973206e6f7420746865206f776e6572604082015260600190565b60208082526031908201527f4552433732313a207472616e736665722063616c6c6572206973206e6f74206f6040820152701ddb995c881b9bdc88185c1c1c9bdd9959607a1b606082015260800190565b604051601f8201601f1916810167ffffffffffffffff81118282101715613d1a57613d1a613e6c565b604052919050565b60008219821115613d3557613d35613e14565b500190565b600082613d4957613d49613e2a565b500490565b6000816000190483118215151615613d6857613d68613e14565b500290565b600082821015613d7f57613d7f613e14565b500390565b60005b83811015613d9f578181015183820152602001613d87565b838111156119775750506000910152565b600181811c90821680613dc457607f821691505b6020821081141561129157634e487b7160e01b600052602260045260246000fd5b6000600019821415613df957613df9613e14565b5060010190565b600082613e0f57613e0f613e2a565b500690565b634e487b7160e01b600052601160045260246000fd5b634e487b7160e01b600052601260045260246000fd5b634e487b7160e01b600052603160045260246000fd5b634e487b7160e01b600052603260045260246000fd5b634e487b7160e01b600052604160045260246000fd5b6001600160e01b031981168114611cc557600080fdfea26474726f6e58221220ffb576fa7f151f5631612442e2db4a808fed2d24dbdc91a5682030d86de5eef364736f6c63430008060033",
  "source": "// SPDX-License-Identifier: MIT\npragma solidity 0.8.6;\n\nlibrary Strings {\n    bytes16 private constant _HEX_SYMBOLS = \"0123456789abcdef\";\n\n    function toString(uint256 value) internal pure returns (string memory) {\n        // Inspired by OraclizeAPI's implementation - MIT licence\n        // https://github.com/oraclize/ethereum-api/blob/b42146b063c7d6ee1358846c198246239e9360e8/oraclizeAPI_0.4.25.sol\n\n        if (value == 0) {\n            return \"0\";\n        }\n        uint256 temp = value;\n        uint256 digits;\n        while (temp != 0) {\n            digits++;\n            temp /= 10;\n        }\n        bytes memory buffer = new bytes(digits);\n        while (value != 0) {\n            digits -= 1;\n            buffer[digits] = bytes1(uint8(48 + uint256(value % 10)));\n            value /= 10;\n        }\n        return string(buffer);\n    }\n}\n\nlibrary Address {\n    function isContractAddr(address account) internal view returns (bool) {\n        return account.code.length > 0;\n    }\n}\n\nlibrary SafeMath {\n    function sub(uint256 a, uint256 b) internal pure returns (uint256) {\n        return a - b;\n    }\n\n    function mul(uint256 a, uint256 b) internal pure returns (uint256) {\n        return a * b;\n    }\n\n    function div(uint256 a, uint256 b) internal pure returns (uint256) {\n        return a / b;\n    }\n}\n\nlibrary Counters {\n    struct Counter {\n        uint256 _value; // default: 0\n    }\n\n    function current(Counter storage counter) internal view returns (uint256) {\n        return counter._value;\n    }\n\n    function increment(Counter storage counter) internal {\n        unchecked {\n            counter._value += 1;\n        }\n    }\n}\n\ninterface IERC165 {\n    function supportsInterface(bytes4 interfaceId) external view returns (bool);\n}\n\ninterface IERC721 is IERC165 {\n    event Transfer(\n        address indexed from,\n        address indexed to,\n        uint256 indexed tokenId\n    );\n\n    event Approval(\n        address indexed owner,\n        address indexed approved,\n        uint256 indexed tokenId\n    );\n\n    event ApprovalForAll(\n        address indexed owner,\n        address indexed operator,\n        bool approved\n    );\n\n    function balanceOf(address owner) external view returns (uint256 balance);\n\n    function ownerOf(uint256 tokenId) external view returns (address owner);\n\n    function safeTransferFrom(\n        address from,\n        address to,\n        uint256 tokenId,\n        bytes calldata data\n    ) external;\n\n    function safeTransferFrom(\n        address from,\n        address to,\n        uint256 tokenId\n    ) external;\n\n    function transferFrom(address from, address to, uint256 tokenId) external;\n\n    function approve(address to, uint256 tokenId) external;\n\n    function setApprovalForAll(address operator, bool _approved) external;\n\n    function getApproved(\n        uint256 tokenId\n    ) external view returns (address operator);\n\n    function isApprovedForAll(\n        address owner,\n        address operator\n    ) external view returns (bool);\n}\n\ninterface IERC721Receiver {\n    function onERC721Received(\n        address operator,\n        address from,\n        uint256 tokenId,\n        bytes calldata data\n    ) external returns (bytes4);\n}\n\ninterface IERC721Metadata is IERC721 {\n    function name() external view returns (string memory);\n\n    function symbol() external view returns (string memory);\n\n    function tokenURI(uint256 tokenId) external view returns (string memory);\n}\n\nabstract contract Context {\n    function _msgSender() internal view virtual returns (address) {\n        return msg.sender;\n    }\n}\n\nabstract contract ERC165 is IERC165 {\n    /**\n     * @dev See {IERC165-supportsInterface}.\n     */\n    function supportsInterface(\n        bytes4 interfaceId\n    ) public view virtual override returns (bool) {\n        return interfaceId == type(IERC165).interfaceId;\n    }\n}\n\ncontract ERC721 is Context, ERC165, IERC721, IERC721Metadata {\n    using Address for address;\n    using Strings for uint256;\n\n    string private _name;\n\n    string private _symbol;\n\n    mapping(uint256 => address) private _owners;\n\n    mapping(address => uint256) private _balances;\n\n    mapping(uint256 => address) private _tokenApprovals;\n\n    mapping(address => mapping(address => bool)) private _operatorApprovals;\n\n    constructor(string memory name_, string memory symbol_) {\n        _name = name_;\n        _symbol = symbol_;\n    }\n\n    function supportsInterface(\n        bytes4 interfaceId\n    ) public view virtual override(ERC165, IERC165) returns (bool) {\n        return\n            interfaceId == type(IERC721).interfaceId ||\n            interfaceId == type(IERC721Metadata).interfaceId ||\n            super.supportsInterface(interfaceId);\n    }\n\n    function balanceOf(\n        address owner\n    ) public view virtual override returns (uint256) {\n        require(\n            owner != address(0),\n            \"ERC721: balance query for the zero address\"\n        );\n        return _balances[owner];\n    }\n\n    function ownerOf(\n        uint256 tokenId\n    ) public view virtual override returns (address) {\n        address owner = _owners[tokenId];\n        require(\n            owner != address(0),\n            \"ERC721: owner query for nonexistent token\"\n        );\n        return owner;\n    }\n\n    function name() external view virtual override returns (string memory) {\n        return _name;\n    }\n\n    function symbol() external view virtual override returns (string memory) {\n        return _symbol;\n    }\n\n    function tokenURI(\n        uint256 tokenId\n    ) external view virtual override returns (string memory) {\n        require(\n            _exists(tokenId),\n            \"ERC721Metadata: URI query for nonexistent token\"\n        );\n\n        string memory baseURI = _baseURI();\n        return\n            bytes(baseURI).length > 0\n                ? string(abi.encodePacked(baseURI, tokenId.toString()))\n                : \"\";\n    }\n\n    function _baseURI() internal view virtual returns (string memory) {\n        return \"\";\n    }\n\n    function approve(address to, uint256 tokenId) external virtual override {\n        address owner = ERC721.ownerOf(tokenId);\n        require(to != owner, \"ERC721: approval to current owner\");\n\n        require(\n            _msgSender() == owner || isApprovedForAll(owner, _msgSender()),\n            \"ERC721: approve caller is not owner nor approved for all\"\n        );\n\n        _approve(to, tokenId);\n    }\n\n    function getApproved(\n        uint256 tokenId\n    ) public view virtual override returns (address) {\n        require(\n            _exists(tokenId),\n            \"ERC721: approved query for nonexistent token\"\n        );\n\n        return _tokenApprovals[tokenId];\n    }\n\n    function setApprovalForAll(\n        address operator,\n        bool approved\n    ) external virtual override {\n        require(operator != _msgSender(), \"ERC721: approve to caller\");\n\n        _operatorApprovals[_msgSender()][operator] = approved;\n        emit ApprovalForAll(_msgSender(), operator, approved);\n    }\n\n    function isApprovedForAll(\n        address owner,\n        address operator\n    ) public view virtual override returns (bool) {\n        return _operatorApprovals[owner][operator];\n    }\n\n    function transferFrom(\n        address from,\n        address to,\n        uint256 tokenId\n    ) external virtual override {\n        //solhint-disable-next-line max-line-length\n        require(\n            _isApprovedOrOwner(_msgSender(), tokenId),\n            \"ERC721: transfer caller is not owner nor approved\"\n        );\n\n        _transfer(from, to, tokenId);\n    }\n\n    function safeTransferFrom(\n        address from,\n        address to,\n        uint256 tokenId\n    ) external virtual override {\n        safeTransferFrom(from, to, tokenId, \"\");\n    }\n\n    function safeTransferFrom(\n        address from,\n        address to,\n        uint256 tokenId,\n        bytes memory _data\n    ) public virtual override {\n        require(\n            _isApprovedOrOwner(_msgSender(), tokenId),\n            \"ERC721: transfer caller is not owner nor approved\"\n        );\n        _safeTransfer(from, to, tokenId, _data);\n    }\n\n    function _safeTransfer(\n        address from,\n        address to,\n        uint256 tokenId,\n        bytes memory _data\n    ) internal virtual {\n        _transfer(from, to, tokenId);\n        require(\n            _checkOnERC721Received(from, to, tokenId, _data),\n            \"ERC721: transfer to non ERC721Receiver implementer\"\n        );\n    }\n\n    function _exists(uint256 tokenId) internal view virtual returns (bool) {\n        return _owners[tokenId] != address(0);\n    }\n\n    function _isApprovedOrOwner(\n        address spender,\n        uint256 tokenId\n    ) internal view virtual returns (bool) {\n        require(\n            _exists(tokenId),\n            \"ERC721: operator query for nonexistent token\"\n        );\n        address owner = ERC721.ownerOf(tokenId);\n        return (spender == owner ||\n            getApproved(tokenId) == spender ||\n            isApprovedForAll(owner, spender));\n    }\n\n    function _safeMint(address to, uint256 tokenId) internal virtual {\n        _safeMint(to, tokenId, \"\");\n    }\n\n    function _safeMint(\n        address to,\n        uint256 tokenId,\n        bytes memory _data\n    ) internal virtual {\n        _mint(to, tokenId);\n        require(\n            _checkOnERC721Received(address(0), to, tokenId, _data),\n            \"ERC721: transfer to non ERC721Receiver implementer\"\n        );\n    }\n\n    function _mint(address to, uint256 tokenId) internal virtual {\n        require(to != address(0), \"ERC721: mint to the zero address\");\n        require(!_exists(tokenId), \"ERC721: token already minted\");\n\n        _beforeTokenTransfer(address(0), to, tokenId);\n\n        _balances[to] += 1;\n        _owners[tokenId] = to;\n\n        emit Transfer(address(0), to, tokenId);\n    }\n\n    function _transfer(\n        address from,\n        address to,\n        uint256 tokenId\n    ) internal virtual {\n        require(\n            ERC721.ownerOf(tokenId) == from,\n            \"ERC721: transfer of token that is not own\"\n        );\n        require(to != address(0), \"ERC721: transfer to the zero address\");\n\n        _beforeTokenTransfer(from, to, tokenId);\n\n        // Clear approvals from the previous owner\n        _approve(address(0), tokenId);\n\n        _balances[from] -= 1;\n        _balances[to] += 1;\n        _owners[tokenId] = to;\n\n        emit Transfer(from, to, tokenId);\n    }\n\n    function _approve(address to, uint256 tokenId) internal virtual {\n        _tokenApprovals[tokenId] = to;\n        emit Approval(ERC721.ownerOf(tokenId), to, tokenId);\n    }\n\n    function _checkOnERC721Received(\n        address from,\n        address to,\n        uint256 tokenId,\n        bytes memory _data\n    ) private returns (bool) {\n        if (to.isContractAddr()) {\n            try\n                IERC721Receiver(to).onERC721Received(\n                    _msgSender(),\n                    from,\n                    tokenId,\n                    _data\n                )\n            returns (bytes4 retval) {\n                return retval == IERC721Receiver.onERC721Received.selector;\n            } catch (bytes memory reason) {\n                if (reason.length == 0) {\n                    revert(\n                        \"ERC721: transfer to non ERC721Receiver implementer\"\n                    );\n                } else {\n                    assembly {\n                        revert(add(32, reason), mload(reason))\n                    }\n                }\n            }\n        } else {\n            return true;\n        }\n    }\n\n    function _beforeTokenTransfer(\n        address from,\n        address to,\n        uint256 tokenId\n    ) internal virtual {}\n}\n\ninterface IERC721Enumerable is IERC721 {\n    function totalSupply() external view returns (uint256);\n\n    function tokenOfOwnerByIndex(\n        address owner,\n        uint256 index\n    ) external view returns (uint256 tokenId);\n\n    function tokenByIndex(uint256 index) external view returns (uint256);\n}\n\nabstract contract ERC721Enumerable is ERC721, IERC721Enumerable {\n    mapping(address => mapping(uint256 => uint256)) private _ownedTokens;\n    mapping(uint256 => uint256) private _ownedTokensIndex;\n    uint256[] private _allTokens;\n    mapping(uint256 => uint256) private _allTokensIndex;\n\n    function supportsInterface(\n        bytes4 interfaceId\n    ) public view virtual override(IERC165, ERC721) returns (bool) {\n        return\n            interfaceId == type(IERC721Enumerable).interfaceId ||\n            super.supportsInterface(interfaceId);\n    }\n\n    function tokenOfOwnerByIndex(\n        address owner,\n        uint256 index\n    ) public view virtual override returns (uint256) {\n        require(\n            index < ERC721.balanceOf(owner),\n            \"ERC721Enumerable: owner index out of bounds\"\n        );\n        return _ownedTokens[owner][index];\n    }\n\n    function totalSupply() public view virtual override returns (uint256) {\n        return _allTokens.length;\n    }\n\n    function tokenByIndex(\n        uint256 index\n    ) external view virtual override returns (uint256) {\n        require(\n            index < ERC721Enumerable.totalSupply(),\n            \"ERC721Enumerable: global index out of bounds\"\n        );\n        return _allTokens[index];\n    }\n\n    function _beforeTokenTransfer(\n        address from,\n        address to,\n        uint256 tokenId\n    ) internal virtual override {\n        super._beforeTokenTransfer(from, to, tokenId);\n\n        if (from == address(0)) {\n            _addTokenToAllTokensEnumeration(tokenId);\n        } else if (from != to) {\n            _removeTokenFromOwnerEnumeration(from, tokenId);\n        }\n        if (to == address(0)) {\n            _removeTokenFromAllTokensEnumeration(tokenId);\n        } else if (to != from) {\n            _addTokenToOwnerEnumeration(to, tokenId);\n        }\n    }\n\n    function _addTokenToOwnerEnumeration(address to, uint256 tokenId) private {\n        uint256 length = ERC721.balanceOf(to);\n        _ownedTokens[to][length] = tokenId;\n        _ownedTokensIndex[tokenId] = length;\n    }\n\n    function _addTokenToAllTokensEnumeration(uint256 tokenId) private {\n        _allTokensIndex[tokenId] = _allTokens.length;\n        _allTokens.push(tokenId);\n    }\n\n    function _removeTokenFromOwnerEnumeration(\n        address from,\n        uint256 tokenId\n    ) private {\n        uint256 lastTokenIndex = ERC721.balanceOf(from) - 1;\n        uint256 tokenIndex = _ownedTokensIndex[tokenId];\n\n        // When the token to delete is the last token, the swap operation is unnecessary\n        if (tokenIndex != lastTokenIndex) {\n            uint256 lastTokenId = _ownedTokens[from][lastTokenIndex];\n\n            _ownedTokens[from][tokenIndex] = lastTokenId; // Move the last token to the slot of the to-delete token\n            _ownedTokensIndex[lastTokenId] = tokenIndex; // Update the moved token's index\n        }\n\n        // This also deletes the contents at the last position of the array\n        delete _ownedTokensIndex[tokenId];\n        delete _ownedTokens[from][lastTokenIndex];\n    }\n\n    function _removeTokenFromAllTokensEnumeration(uint256 tokenId) private {\n        // To prevent a gap in the tokens array, we store the last token in the index of the token to delete, and\n        // then delete the last slot (swap and pop).\n\n        uint256 lastTokenIndex = _allTokens.length - 1;\n        uint256 tokenIndex = _allTokensIndex[tokenId];\n\n        // When the token to delete is the last token, the swap operation is unnecessary. However, since this occurs so\n        // rarely (when the last minted token is burnt) that we still do the swap here to avoid the gas cost of adding\n        // an 'if' statement (like in _removeTokenFromOwnerEnumeration)\n        uint256 lastTokenId = _allTokens[lastTokenIndex];\n\n        _allTokens[tokenIndex] = lastTokenId; // Move the last token to the slot of the to-delete token\n        _allTokensIndex[lastTokenId] = tokenIndex; // Update the moved token's index\n\n        // This also deletes the contents at the last position of the array\n        delete _allTokensIndex[tokenId];\n        _allTokens.pop();\n    }\n}\n\nabstract contract Ownable is Context {\n    address private _owner;\n\n    event OwnershipTransferred(\n        address indexed previousOwner,\n        address indexed newOwner\n    );\n\n    constructor() {\n        _setOwner(_msgSender());\n    }\n\n    function owner() public view virtual returns (address) {\n        return _owner;\n    }\n\n    modifier onlyOwner() {\n        require(owner() == _msgSender(), \"Ownable: caller is not the owner\");\n        _;\n    }\n\n    function renounceOwnership() external virtual onlyOwner {\n        _setOwner(address(0));\n    }\n\n    function transferOwnership(address newOwner) public virtual onlyOwner {\n        require(\n            newOwner != address(0),\n            \"Ownable: new owner is the zero address\"\n        );\n        _setOwner(newOwner);\n    }\n\n    function _setOwner(address newOwner) internal {\n        address oldOwner = _owner;\n        _owner = newOwner;\n        emit OwnershipTransferred(oldOwner, newOwner);\n    }\n}\n\ninterface IERC2981 is IERC165 {\n    /**\n     * @dev Returns how much royalty is owed and to whom, based on a sale price that may be denominated in any unit of\n     * exchange. The royalty amount is denominated and should be paid in that same unit of exchange.\n     */\n    function royaltyInfo(\n        uint256 tokenId,\n        uint256 salePrice\n    ) external view returns (address receiver, uint256 royaltyAmount);\n}\n\nabstract contract ERC2981 is IERC2981, ERC165 {\n    struct RoyaltyInfo {\n        address receiver;\n        uint96 royaltyFraction;\n    }\n\n    RoyaltyInfo private _defaultRoyaltyInfo;\n    mapping(uint256 => RoyaltyInfo) private _tokenRoyaltyInfo;\n\n    function supportsInterface(\n        bytes4 interfaceId\n    ) public view virtual override(IERC165, ERC165) returns (bool) {\n        return\n            interfaceId == type(IERC2981).interfaceId ||\n            super.supportsInterface(interfaceId);\n    }\n\n    function royaltyInfo(\n        uint256 _tokenId,\n        uint256 _salePrice\n    ) public view virtual override returns (address, uint256) {\n        RoyaltyInfo memory royalty = _tokenRoyaltyInfo[_tokenId];\n\n        if (royalty.receiver == address(0)) {\n            royalty = _defaultRoyaltyInfo;\n        }\n\n        uint256 royaltyAmount = (_salePrice * royalty.royaltyFraction) /\n            _feeDenominator();\n\n        return (royalty.receiver, royaltyAmount);\n    }\n\n    function _feeDenominator() internal pure virtual returns (uint96) {\n        return 10000;\n    }\n\n    function _setDefaultRoyalty(\n        address receiver,\n        uint96 feeNumerator\n    ) internal virtual {\n        require(\n            feeNumerator <= _feeDenominator(),\n            \"ERC2981: royalty fee will exceed salePrice\"\n        );\n        require(receiver != address(0), \"ERC2981: invalid receiver\");\n\n        _defaultRoyaltyInfo = RoyaltyInfo(receiver, feeNumerator);\n    }\n\n    function _deleteDefaultRoyalty() internal virtual {\n        delete _defaultRoyaltyInfo;\n    }\n\n    function _setTokenRoyalty(\n        uint256 tokenId,\n        address receiver,\n        uint96 feeNumerator\n    ) internal virtual {\n        require(\n            feeNumerator <= _feeDenominator(),\n            \"ERC2981: royalty fee will exceed salePrice\"\n        );\n        require(receiver != address(0), \"ERC2981: Invalid parameters\");\n\n        _tokenRoyaltyInfo[tokenId] = RoyaltyInfo(receiver, feeNumerator);\n    }\n\n    function _resetTokenRoyalty(uint256 tokenId) internal virtual {\n        delete _tokenRoyaltyInfo[tokenId];\n    }\n}\n\ncontract NFTContract is ERC721Enumerable, ERC2981, Ownable {\n    using SafeMath for uint256;\n    using Counters for Counters.Counter;\n    using Strings for uint256;\n\n    Counters.Counter private _tokenIdTracker;\n\n    uint256 public immutable MAX_ELEMENTS;\n    uint256 public PRICE;\n    uint256 public PRESALE_PRICE;\n    uint256 public immutable MAX_MINT_TX;\n    uint256 public immutable MAX_BY_MINT;\n    uint256 public immutable PRESALE_MINT_LIMIT;\n    uint256 public immutable MAX_MINT_WHITELIST_TX;\n    uint256 public immutable MAX_BY_MINT_WHITELIST;\n    uint256 public SALE_START; //Sunday, July 11, 2022, 00:00:00 UTC\n    uint256 public PRESALE_START; //Monday, July 09, 2022, 00:00:00 UTC\n\n    bool public isPaused = false;\n    bool public isRevealed = false;\n\n    mapping(address => bool) private _whiteList;\n    mapping(address => uint256) private _whiteListClaimed;\n    mapping(address => uint256) private _generalClaimed;\n\n    bool[] private ennabledFeatures;\n    uint256 private _reservedCount = 0;\n    uint256 private _presaleMintCount = 0;\n\n    string private notRevealedtokenUri;\n    string public baseTokenURI;\n\n    event CreateAlphaOctopusNFT(uint256 indexed id);\n    event PresaleTimeChanged(uint256 indexed newTimestamp);\n    event PresalePriceChanged(uint256 indexed newPrice);\n    event SaleTimeChanged(uint256 indexed newTimestamp);\n    event SalePriceChanged(uint256 indexed newPrice);\n\n    address private saleFundsReceiver;\n    //string\n    uint256 constant CID_UNREVEAL_METADATA = 0;\n    uint256 constant CID_METADATA = 1;\n\n    //address\n    uint256 constant OWNER = 0;\n    uint256 constant ADDRESS_SALE_AMT = 1;\n    uint256 constant ADDRESS_ROYALTY = 2;\n\n    //uint256\n\n    uint256 constant COLLECTION_SIZE = 0;\n    uint256 constant MINTS_PER_TX = 1;\n    uint256 constant MINT_PRICE = 2;\n    uint256 constant MINTS_PER_WALLET = 3;\n    uint256 constant MINT_START_TIME = 4;\n    uint256 constant ROYALTY_BIPS = 5;\n    uint256 constant PRESALE_LIMIT = 6;\n    uint256 constant PRESALE_MINT_PRICE = 7;\n    uint256 constant PRESALE_MINT_PER_TX = 8;\n    uint256 constant PRESALE_MINT_PER_WALLET = 9;\n\n    //boolean\n    uint256 constant ENABLE_PRESALE = 0;\n    uint256 constant ENABLE_AIRDROPS = 1;\n    uint256 constant ENABLE_CHANGE_MINTING_PRICES = 2;\n    uint256 constant ENABLE_CHANGE_MINTING_TIMING = 3;\n    uint256 constant ENABLE_NFT_REVEAL = 4;\n    uint256 constant ENABLE_PREMINT = 5;\n    uint256 constant ENABLE_COLLECTION_BASE_URI = 6;\n\n    constructor(\n        string memory name_,\n        string memory symbol_,\n        string[] memory inputString,\n        address[] memory inputAddress,\n        uint256[] memory inputUint256,\n        bool[] memory inputBoolean\n    ) ERC721(name_, symbol_) {\n        MAX_ELEMENTS = inputUint256[COLLECTION_SIZE];\n        MAX_MINT_TX = inputUint256[MINTS_PER_TX];\n        PRICE = inputUint256[MINT_PRICE];\n        MAX_BY_MINT = inputUint256[MINTS_PER_WALLET];\n        SALE_START = inputUint256[MINT_START_TIME];\n        PRESALE_MINT_LIMIT = inputUint256[PRESALE_LIMIT];\n        PRESALE_PRICE = inputUint256[PRESALE_MINT_PRICE];\n        MAX_MINT_WHITELIST_TX = inputUint256[PRESALE_MINT_PER_TX];\n        MAX_BY_MINT_WHITELIST = inputUint256[PRESALE_MINT_PER_WALLET];\n        ennabledFeatures = inputBoolean;\n        if (!ennabledFeatures[ENABLE_NFT_REVEAL]) {\n            isRevealed = true;\n        }\n        _setDefaultRoyalty(\n            inputAddress[ADDRESS_ROYALTY],\n            uint96(inputUint256[ROYALTY_BIPS])\n        );\n        saleFundsReceiver = inputAddress[ADDRESS_SALE_AMT];\n        _setOwner(inputAddress[OWNER]);\n        notRevealedtokenUri = inputString[CID_UNREVEAL_METADATA];\n        baseTokenURI = inputString[CID_METADATA];\n        _tokenIdTracker.increment();\n    }\n\n    modifier saleIsOpen() {\n        if (_msgSender() != owner()) {\n            require(SALE_START < block.timestamp, \"Sale is not open\");\n        }\n        _;\n    }\n\n    modifier enabled(uint256 featureIndex) {\n        _checkFeature(featureIndex);\n        _;\n    }\n    modifier preSaleIsOpen() {\n        if (_msgSender() != owner()) {\n            require(PRESALE_START < block.timestamp, \"Pre Sale is not open\");\n            require(SALE_START > block.timestamp, \"Pre Sale is closed.\");\n        }\n        _;\n    }\n\n    function _checkFeature(uint256 featureIndex) internal view {\n        if (!ennabledFeatures[featureIndex]) {\n            revert(string(abi.encodePacked(\"Feature Not Enabled.\")));\n        }\n    }\n\n    function isPresaleOpen() external view returns (bool) {\n        if (PRESALE_START < block.timestamp && SALE_START > block.timestamp)\n            return true;\n        else return false;\n    }\n\n    function _totalSupply() internal view returns (uint256) {\n        return _tokenIdTracker.current();\n    }\n\n    function totalMint() external view returns (uint256) {\n        return _totalSupply();\n    }\n\n    function reserveTokens(uint256 count) external onlyOwner enabled(ENABLE_PREMINT) {\n        uint256 i;\n        for (i = 0; i < count; i++) {\n            _reservedCount++;\n            _mintAnElement(msg.sender);\n        }\n    }\n\n    function mint(uint256 _count) external payable saleIsOpen {\n        uint256 total = _tokenIdTracker.current().sub(1);\n        require(total + _count <= MAX_ELEMENTS, \"Max limit\");\n        require(total <= MAX_ELEMENTS, \"All Alpha Octopus NFT's are sold out\");\n        require(_count <= MAX_BY_MINT, \"Exceeds allowed NFT's per transaction\");\n        require(!isPaused, \"Sale is Paused.\");\n        require(\n            _generalClaimed[_msgSender()] + _count <= MAX_BY_MINT,\n            \"Exceeds your minting quota.\"\n        );\n        require(msg.value >= salePrice(_count), \"Value below price\");\n\n\n        _generalClaimed[_msgSender()] += _count;\n        for (uint256 i = 0; i < _count; i++) {\n            _mintAnElement(_msgSender());\n        }\n        _withdraw(owner(), address(this).balance);\n    }\n\n    function presaleMint(\n        uint256 _count\n    ) external payable preSaleIsOpen enabled(ENABLE_PRESALE) {\n        require(_whiteList[msg.sender], \"You are not in whitelist\");\n        require(\n            _count <= MAX_BY_MINT_WHITELIST,\n            \"More then allowed per transaction.\"\n        );\n        require(\n            _whiteListClaimed[msg.sender] + _count <= MAX_BY_MINT_WHITELIST,\n            \"Exceeds your whitelist minting quota.\"\n        );\n        uint256 total = _tokenIdTracker.current().sub(1);\n        require(total + _count <= PRESALE_MINT_LIMIT, \"Max presale limit\");\n        require(total <= PRESALE_MINT_LIMIT, \"All presale NFT's are sold out\");\n        require(msg.value >= presalePrice(_count), \"Value below price\");\n        require(!isPaused, \"Sale is Paused.\");\n        _whiteListClaimed[msg.sender] += _count;\n        _presaleMintCount += _count;\n        for (uint256 i = 0; i < _count; i++) {\n            \n            _mintAnElement(msg.sender);\n        }\n        _withdraw(owner(), address(this).balance);\n    }\n\n    function airdropNFT(\n        address[] memory winners\n    ) external onlyOwner enabled(ENABLE_AIRDROPS) {\n        uint256 total = _tokenIdTracker.current().sub(1);\n        require(total + winners.length <= MAX_ELEMENTS, \"Max limit\");\n        require(\n            winners.length > 0,\n            \"Please provide the list of wallets for the airdrop\"\n        );\n        for (uint256 i = 0; i < winners.length; i++) {\n            _mintAnElement(winners[i]);\n        }\n    }\n\n    function _mintAnElement(address _to) private {\n        uint256 id = _totalSupply();\n        _tokenIdTracker.increment();\n        _safeMint(_to, id);\n        emit CreateAlphaOctopusNFT(id);\n    }\n\n    function revealCollection() external onlyOwner enabled(ENABLE_NFT_REVEAL) {\n        isRevealed = true;\n    }\n\n    function salePrice(uint256 _count) public view returns (uint256) {\n        return PRICE.mul(_count);\n    }\n\n    function presalePrice(\n        uint256 _count\n    ) public view enabled(ENABLE_PRESALE) returns (uint256) {\n        return PRESALE_PRICE.mul(_count);\n    }\n\n    function _baseURI() internal view virtual override returns (string memory) {\n        return baseTokenURI;\n    }\n\n    function setBaseURI(string memory baseURI) public onlyOwner enabled(ENABLE_COLLECTION_BASE_URI) {\n        baseTokenURI = baseURI;\n    }\n\n    function tokenURI(\n        uint256 tokenId\n    ) external view virtual override returns (string memory) {\n        require(\n            _exists(tokenId),\n            \"ERC721Metadata: URI query for nonexistent token\"\n        );\n\n        uint256 metaId = tokenId;\n        string memory uriSuffix = \".json\";\n        string memory currentBaseURI = _baseURI();\n        if (isRevealed) {\n            return\n                bytes(currentBaseURI).length > 0\n                    ? string(\n                        abi.encodePacked(\n                            currentBaseURI,\n                            metaId.toString(),\n                            uriSuffix\n                        )\n                    )\n                    : \"\";\n        } else {\n            return string(abi.encodePacked(notRevealedtokenUri));\n        }\n    }\n\n    function walletOfOwner(\n        address _owner\n    ) external view returns (uint256[] memory) {\n        uint256 tokenCount = balanceOf(_owner);\n\n        uint256[] memory tokensId = new uint256[](tokenCount);\n        for (uint256 i = 0; i < tokenCount; i++) {\n            tokensId[i] = tokenOfOwnerByIndex(_owner, i);\n        }\n\n        return tokensId;\n    }\n\n    function setPresaleTime(\n        uint256 _presaleTime\n    )\n        external\n        onlyOwner\n        enabled(ENABLE_PRESALE)\n        enabled(ENABLE_CHANGE_MINTING_TIMING)\n    {\n        PRESALE_START = _presaleTime;\n        emit PresaleTimeChanged(_presaleTime);\n    }\n\n    function setSaleTime(\n        uint256 _saleTime\n    ) external onlyOwner enabled(ENABLE_CHANGE_MINTING_TIMING) {\n        SALE_START = _saleTime;\n        emit SaleTimeChanged(_saleTime);\n    }\n\n    function pauseMinting() external onlyOwner {\n        isPaused = true;\n    }\n\n    function resumeMinting() external onlyOwner {\n        isPaused = false;\n    }\n\n    function setPresalePrice(\n        uint256 _price\n    )\n        external\n        onlyOwner\n        enabled(ENABLE_PRESALE)\n        enabled(ENABLE_CHANGE_MINTING_PRICES)\n    {\n        PRESALE_PRICE = _price;\n        emit PresalePriceChanged(_price);\n    }\n\n    function setSalePrice(\n        uint256 _price\n    ) external onlyOwner enabled(ENABLE_CHANGE_MINTING_PRICES) {\n        PRICE = _price;\n        emit SalePriceChanged(_price);\n    }\n\n    function addToWhiteList(\n        address[] calldata addresses\n    ) external onlyOwner enabled(ENABLE_PRESALE) {\n        for (uint256 i = 0; i < addresses.length; i++) {\n            require(addresses[i] != address(0), \"Null address found\");\n\n            _whiteList[addresses[i]] = true;\n            _whiteListClaimed[addresses[i]] > 0\n                ? _whiteListClaimed[addresses[i]]\n                : 0;\n        }\n    }\n\n    function addressInWhitelist(\n        address addr\n    ) external view enabled(ENABLE_PRESALE) returns (bool) {\n        return _whiteList[addr];\n    }\n\n    function removeFromWhiteList(\n        address[] calldata addresses\n    ) external onlyOwner enabled(ENABLE_PRESALE) {\n        for (uint256 i = 0; i < addresses.length; i++) {\n            require(addresses[i] != address(0), \"Null address found\");\n\n            _whiteList[addresses[i]] = false;\n        }\n    }\n\n    function withdrawAll() external onlyOwner {\n        uint256 balance = address(this).balance;\n        require(balance > 0);\n        _withdraw(owner(), balance);\n    }\n\n    function _withdraw(address _address, uint256 _amount) private {\n        payable(_address).transfer(_amount);\n    }\n\n    function setRoyaltyInfo(\n        address _receiver,\n        uint96 _royaltyFeesInBips\n    ) public onlyOwner {\n        _setDefaultRoyalty(_receiver, _royaltyFeesInBips);\n    }\n\n    function supportsInterface(\n        bytes4 interfaceId\n    ) public view override(ERC721Enumerable, ERC2981) returns (bool) {\n        return super.supportsInterface(interfaceId);\n    }\n}\n",
  "sourcePath": "/Users/shivam/github/nft-generator-cotracts/contracts/Token.sol",
  "compiler": {
    "name": "solc",
    "version": "0.8.6+commit.0e36fba0.mod.Emscripten.clang"
  },
  "schemaVersion": "2.0.1",
  "updatedAt": "2023-01-10T09:02:05.138Z"
}